:100000000C942A000C943F000C943F000C943F0089
:100010000C943F000C943F000C943F000C943F0064
:100020000C943F000C943F000C943F000C943F0054
:100030000C943F000C943F000C943F000C943F0044
:100040000C943F000C943F000C943F000C943F0034
:100050000C943F0011241FBECFE5D8E0DEBFCDBF1A
:1000600010E0A0E6B0E0ECEEF0E002C005900D92EA
:10007000A037B107D9F70E9441000C9474000C948A
:1000800000008FEF87BB0E94500080E690E00E9446
:1000900061000E945D00C82F0E945900C8BBF9CFC3
:1000A00010BC8CE089B9599A88E18AB986E880BD8C
:1000B00008955D9BFECF8CB908955F9BFECF8CB1F8
:1000C00008951F93CF93DF93EC0110E0FE01E10F41
:1000D000F11D8081811104C0DF91CF911F9108959E
:0C00E0000E9459001F5FF2CFF894FFCF80
:1000EC0048656C6C6F20576F726C64210D0A0000B0
:00000001FF
