:100000000C942A000C9434000C9434000C943400AA
:100010000C9434000C9434000C9434000C94340090
:100020000C9434000C9434000C9434000C94340080
:100030000C9434000C9434000C9434000C94340070
:100040000C9434000C9434000C9434000C94340060
:100050000C94340011241FBECFE5D8E0DEBFCDBF25
:100060000E9436000C942A010C940000B89A60E0BB
:1000700070EF84E191E00E94040188EC90E00E941E
:100080001C0160E070EF8BE591E00E94040188ECB8
:1000900090E00E941C0160E070EF8BE591E00E940F
:1000A000040184E190E00E941C0160E070EF86E3AF
:1000B00091E00E94040184E190E00E941C0160E054
:1000C00070EF84E291E00E9404018AE590E00E94D2
:1000D0001C0160E070EF86E391E00E94040184E17E
:1000E00090E00E941C0160E070EF8BE591E00E94BF
:1000F000040184E190E00E941C0160E070EF80E761
:1001000091E00E94040184E190E00E941C0160E003
:1001100070EF8BE591E00E94040184E190E00E9481
:100120001C0160E070EF86E391E00E94040184E12D
:1001300090E00E941C0160E070EF84E191E00E9479
:10014000040188EC90E00E941C0160E070EF87E6FB
:1001500090E00E94040160E070E587E690E00E9474
:1001600004018CE291E00E941C0160E070EF8EE9D6
:1001700091E00E94040160E070E58EE991E00E9448
:10018000040182E390E00E941C0160E070EE80E7D1
:1001900091E00E9404018AE590E00E941C0160E069
:1001A00070EF8BE591E00E94040186E490E00E94EC
:1001B0001C0160E070EF86E391E00E9404018AE593
:1001C00090E00E941C0160E070EF8BE591E00E94DE
:1001D000040160E070EF80E791E00E9404018AE58D
:1001E00090E00E941C0160E070EF88EE90E00E94B9
:1001F00004018CE390E00E941C0160E070EF84E059
:1002000091E00E94040133CF9C01CB0150E040E01B
:10021000E1E04817590768F0089500006F5F7F4FCD
:1002200062177307D1F768B36E2768BB420F531F7D
:10023000F0CF70E060E0F4CF9C0188B318BAE9EF2A
:10024000F0E03197F1F700C0000021503109B9F713
:0802500088BB0895F894FFCF6C
:00000001FF
