:100000000C942A000C9434000C9434000C943400AA
:100010000C9434000C9434000C9434000C94340090
:100020000C9434000C9434000C9434000C94340080
:100030000C9434000C9434000C9434000C94340070
:100040000C9434000C9434000C9434000C94340060
:100050000C94340011241FBECFE5D8E0DEBFCDBF25
:100060000E9436000C944F000C94000087B383600C
:1000700087BB83E088BB2FE33DE093E02150304015
:100080009040E1F700C0000018BA2FE33DE093E094
:10009000215030409040E1F700C00000EBCFF894D1
:0200A000FFCF90
:00000001FF
